{
  "contractName": "StoreProperty",
  "abi": [
    {
      "constant": true,
      "inputs": [],
      "name": "IPCount",
      "outputs": [
        {
          "internalType": "uint256",
          "name": "",
          "type": "uint256"
        }
      ],
      "payable": false,
      "stateMutability": "view",
      "type": "function"
    },
    {
      "constant": true,
      "inputs": [
        {
          "internalType": "uint256",
          "name": "",
          "type": "uint256"
        }
      ],
      "name": "property",
      "outputs": [
        {
          "internalType": "uint256",
          "name": "id",
          "type": "uint256"
        },
        {
          "internalType": "string",
          "name": "propertyHash",
          "type": "string"
        },
        {
          "internalType": "uint256",
          "name": "timestamp",
          "type": "uint256"
        }
      ],
      "payable": false,
      "stateMutability": "view",
      "type": "function"
    },
    {
      "constant": false,
      "inputs": [
        {
          "internalType": "string",
          "name": "IPHash",
          "type": "string"
        }
      ],
      "name": "addIP",
      "outputs": [],
      "payable": false,
      "stateMutability": "nonpayable",
      "type": "function"
    }
  ],
  "bytecode": "0x608060405234801561001057600080fd5b506103f0806100206000396000f3fe608060405234801561001057600080fd5b50600436106100415760003560e01c806330e1ad321461004657806363ec0aea146100fb578063e0d9b61d146101b6575b600080fd5b6100726004803603602081101561005c57600080fd5b81019080803590602001909291905050506101d4565b6040518084815260200180602001838152602001828103825284818151815260200191508051906020019080838360005b838110156100be5780820151818401526020810190506100a3565b50505050905090810190601f1680156100eb5780820380516001836020036101000a031916815260200191505b5094505050505060405180910390f35b6101b46004803603602081101561011157600080fd5b810190808035906020019064010000000081111561012e57600080fd5b82018360208201111561014057600080fd5b8035906020019184600183028401116401000000008311171561016257600080fd5b91908080601f016020809104026020016040519081016040528093929190818152602001838380828437600081840152601f19601f820116905080830192505050505050509192919290505050610296565b005b6101be610310565b6040518082815260200191505060405180910390f35b6000602052806000526040600020600091509050806000015490806001018054600181600116156101000203166002900480601f0160208091040260200160405190810160405280929190818152602001828054600181600116156101000203166002900480156102865780601f1061025b57610100808354040283529160200191610286565b820191906000526020600020905b81548152906001019060200180831161026957829003601f168201915b5050505050908060020154905083565b600160008154809291906001019190505550604051806060016040528060015481526020018281526020014281525060008060015481526020019081526020016000206000820151816000015560208201518160010190805190602001906102ff929190610316565b506040820151816002015590505050565b60015481565b828054600181600116156101000203166002900490600052602060002090601f016020900481019282601f1061035757805160ff1916838001178555610385565b82800160010185558215610385579182015b82811115610384578251825591602001919060010190610369565b5b5090506103929190610396565b5090565b6103b891905b808211156103b457600081600090555060010161039c565b5090565b9056fea265627a7a72315820137bccd976dd0cfc0a94291ccf7d525a937a44e12c37aea01e2359e2ce3b54fc64736f6c634300050c0032",
  "source": "pragma solidity >=0.4.21;\n\ncontract StoreProperty {\n    //Intellectual Property Model\n    struct IP {\n        uint256 id;\n        string propertyHash;\n        uint256 timestamp;\n    }\n\n    mapping(uint256 => IP) public property;\n\n    uint256 public IPCount;\n\n    //Constructor\n    /*constructor() public {\n    }*/\n\n    function addIP(string memory IPHash) public {\n        IPCount++;\n        property[IPCount] = IP(IPCount, IPHash, now);\n    }\n}\n",
  "sourcePath": "/home/jack/Files/Code/bitcoin-ip-protection/contracts/StoreProperty.sol",
  "compiler": {
    "name": "solc",
    "version": "0.5.12+commit.7709ece9.Emscripten.clang"
  },
  "schemaVersion": "3.0.19",
  "updatedAt": "2020-07-14T21:53:15.088Z",
  "networkType": "ethereum",
  "devdoc": {
    "methods": {}
  },
  "userdoc": {
    "methods": {}
  }
}